:020000040800F2
:1000000080060020250200087D0300087503000813
:1000100079030008E1020008310400080000000034
:10002000000000000000000000000000B103000814
:100030007103000800000000AD0300083D02000845
:100040003F0200083F0200083F0200083F0200088C
:100050003F0200083F0200083F0200083F0200087C
:100060003F0200083F0200083F0200083F0200086C
:100070003F0200083F0200083F0200083F0200085C
:100080003F0200083F0200083F0200083F0200084C
:100090003F0200083F0200083F0200083F0200083C
:1000A0003F0200083F0200083F0200083F0200082C
:1000B0003F0200083F0200083F0200083F0200081C
:1000C0003F0200083F0200083F0200083F0200080C
:1000D0003F0200083F0200083F0200083F020008FC
:1000E0003F0200083F0200083F0200083F020008EC
:1000F0003F0200083F0200083F0200083F020008DC
:100100003F0200083F0200083F0200083F020008CB
:100110003F0200083F0200083F02000811040008E7
:100120003F0200083F0200083F0200083F020008AB
:100130003F0200083F0200083F0200083F0200089B
:1001400000000000000000000000000000000000AF
:100150003F0200083F0200083F0200083F0200087B
:100160003F0200083F0200083F0200083F0200086B
:100170003F0200083F0200083F0200083F0200085B
:100180003F02000800F002F800F03CF80AA090E8F6
:10019000000C82448344AAF10107DA4501D100F042
:1001A00031F8AFF2090EBAE80F0013F0010F18BFD3
:1001B000FB1A43F001031847981F0000B81F000006
:1001C000103A24BF78C878C1FAD8520724BF30C883
:1001D00030C144BF04680C60704700000023002455
:1001E00000250026103A28BF78C1FBD8520728BF47
:1001F00030C148BF0B6070471FB501F096FF1FBDAF
:1002000010B510BD00F031F81146FFF7F5FF00F012
:1002100043FD00F04FF803B4FFF7F2FF03BC00F01A
:1002200057F800000948804709480047FEE7FEE705
:10023000FEE7FEE7FEE7FEE7FEE7FEE7FEE7FEE796
:1002400004480549054A064B70470000B5030008FD
:100250008501000880000020800600208002002028
:1002600080020020704770477047754600F02CF8F8
:10027000AE4605006946534620F00700854618B093
:1002800020B5FFF7DDFFBDE820404FF000064FF03E
:1002900000074FF000084FF0000BAC46ACE8C00977
:1002A000ACE8C009ACE8C009ACE8C00921F007011E
:1002B0008D46704710B50446AFF300802046BDE878
:1002C0001040FFF7A8BF000000487047080000205A
:1002D00001491820ABBEFEE726000200704700006F
:1002E000FEE700004EF6FC50CEF20000016841F03F
:1002F0008071016041F20000CEF2000000214160F7
:10030000016841F00101016040F20000C2F200000A
:10031000006840F26801C2F2000108607047000006
:1003200010B5002808BF10BD044600BF4FF47A7016
:10033000013C00F003F8002CF8D110BD41F204019B
:1003400040F26803CEF20001C2F200030A68D3F85B
:1003500000C04DF68363C4F21B33ACFB033C4FEA91
:100360009C4358430B689B1A8342FBD370470000A1
:1003700070470000FEE70000FEE700007047000045
:1003800000F0070080F00703042B28BF04234FF080
:10039000FF3C03380CFA03F338BF00209943814037
:1003A0000CFA00F022EA0000084370477047000092
:1003B000704700004EF68850CEF20000026841F20D
:1003C000000142F47002C4F2020102600A6842F0C5
:1003D00001020A600A689207FCD54A6822F003020B
:1003E0004A6000BF4A6812F00C0FFBD10A684FF652
:1003F000FF73CFF6F2631A400A6000224A600A6374
:100400004FF41F028A604FF0006140F8801C704773
:1004100041F21040C4F20000016821F001010160C6
:1004200040F27800C2F200000168013101607047BB
:10043000FEE70000002848BF704700F01F010122BE
:1004400002FA01F14EF200124009CEF2000242F827
:10045000201070474EF60C50CEF200000068C0F33A
:10046000022070474EF6145300F00F02CEF2000344
:1004700009011A4400F16043B0F1FF3FC8BF03F522
:1004800064421170704700004EF60C51CEF200012C
:100490000A684FF6FF031A4060F30A2242F08060B8
:1004A00040F0FD70086070470A78436802F001026E
:1004B00023F4807343EA022242604A78836862F33D
:1004C000410383608A78836802F0010223F40063A9
:1004D00043EAC2228260C978C26A013901F00F0181
:1004E00022F4700242EA0151C16270474FF08071FC
:1004F00001607047816841F0080181607047000029
:100500008068C0F3C0007047816841F004018160D9
:10051000704700008068C0F38000704742F20441D9
:10052000C4F201010A6800F00F0022F4702242EACE
:100530000040086070470000826801F0010122F469
:10054000807242EA0121816070470000826861F395
:100550000002826070470000B0B501EB410C4FF023
:100560000C0E0A2928BFACF11E0C38BF4FF0100E3C
:1005700050F80E40072505FA0CF5AC4303FA0CF3CE
:1005800023430D2A40F80E3003D32C306FF0400384
:1005900007E0072A39BF34306FF0040330306FF0C2
:1005A000220302EB820205681A441F23934025EAC6
:1005B0000303914019430160B0BD0000836807291F
:1005C00023F0007388BF03F100738360836802F037
:1005D000010261F353438360816821F4801141EA91
:1005E0000251816070470000426801F0010122F46D
:1005F000006242EAC121416070470000826801F058
:10060000010122F4800242EA8151816070470000BA
:100610002420C4F200000021016070472420C4F2AD
:100620000000026847F6D061C0F201018A4206D993
:10063000006801F57A61884201D2012000E00220C1
:1006400041F21041C4F201010860704741F2040117
:10065000C4F202010A6860F38F320A600A68C0F3CC
:10066000830060F31C720A607047000041F20401CD
:10067000C4F202010A6800F00F0022F0F00242EA20
:10068000001008607047000041F20401C4F202014A
:100690000A6800F0070022F4E06242EA00200860E5
:1006A0007047000041F20401C4F202010A6800F040
:1006B000070022F4605242EAC02008607047000040
:1006C00041F25401C4F202010A68012822F030020A
:1006D00008BF30320A607047042888BF7047DFE8DF
:1006E00000F0030C19262F0041F20000C4F20200B2
:1006F000026861F300020260704741F20000C4F238
:100700000200026801F0010122F4803242EA014154
:100710000160704741F20000C4F20200026801F07B
:10072000010122F0807242EA01610160704741F2EA
:100730000000C4F20200026A61F300020262704724
:1007400041F20000C4F20200426A61F30002426218
:100750007047000041F20002010CC4F20202895805
:1007600000F01F0021FA00F000F0010070470000C7
:1007700010B500241120FFF7EDFF210B022903D84B
:10078000012804F10104F5D11120FFF7E3FF01383E
:10079000B0FA80F0400910BD41F2000200F01F03E2
:1007A0004FF0010CC4F2020201290CFA03F14FEAE6
:1007B0001040835814BF23EA010119438150704748
:1007C00080B541F2040EC4F2020EDEF800C070B132
:1007D0004CF48033CEF80030DEF800C0012814BF9E
:1007E0004CF400302CF40030CEF8000009E02CF47A
:1007F0008030CEF80000DEF82C0040F00070CEF81B
:100800002C00DEF8000061F39540CEF80000DEF821
:100810000000C1F3021161F35E70CEF80000DEF853
:10082000000020F0004040EAC270CEF8000080BD19
:1008300041F20000C4F20200016841F001010160D0
:1008400001688907FCD5416821F00301416000BFC0
:10085000416811F00C0FFBD101684FF6FF72CFF623
:10086000F262114001600021416001634FF41F01F9
:100870008160704741F20401C4F202010A6860F32A
:1008800001020A6000BF00BF00BF00BF00BF00BF81
:1008900000BF00BF00BF00BF00BF00BF00BF00BF60
:1008A00000BF00BF00BF00BF00BF00BF7047000017
:1008B00041F20400C4F202000068C0F381007047F6
:1008C00047F200420228C4F2000208D0012818BFF3
:1008D0007047136801F0010023F0010105E013687F
:1008E00001F00100000423F48031084310607047D8
:1008F000012807D0022818BF70476FF4003C4FF45E
:10090000003202E06FF0020C022247F20043C4F210
:1009100000031868002900EA0C0008BF10431860A3
:100920007047000047F200420228C4F2000209D0DA
:10093000012818BF70471368042000EA810023F0E3
:10094000040105E0136801F00100800423F4802114
:100950000843106070470000026861F30002026003
:100960007047000000210182C0E90011C0E90211B6
:10097000704700000421B0F1805FC4F2020192BF11
:10098000086020F07040C1F8000470470021C4F2F4
:100990000201B0F1805F88BF01F5806109680840FD
:1009A00018BF01207047000084465CF8A43FDB01BB
:1009B00005D4DCF8003043F08073CCF80030013906
:1009C000062988BF7047DFE801F0040A11181F24C8
:1009D0002A0050F8A01F21F0FF01844624E050F8BF
:1009E000A01F120221F47F4184461DE050F8A01F91
:1009F000120421F47F01844616E050F8A01F12066D
:100A000021F07F4184460FE0DCF8000020F0FF0178
:100A10000AE0DCF80000120220F47F4104E0DCF878
:100A20000000120420F47F0141EA0200CCF800002B
:100A30007047000002684BF6EF731A4002600A89A3
:100A400003681A4302604A7C036802F0030223F43D
:100A5000405343EA02320260CA7B036802F0030299
:100A600023F4406343EA822202608A7B036802F037
:100A7000030223F4407343EA022202604A7B0368C4
:100A800002F0010223F0800343EAC21202600A7BF3
:100A9000036862F3861303600A7C036862F34513FC
:100AA00003604A8942600A6882604968C160704791
:100AB000016821F001010160002101604160816055
:100AC000C16040F2FF4100EA01020421B2F5816FEA
:100AD000C4F2020105D3D208902A88BF704701F5FD
:100AE00080616FF0070252FA80F04CF6CD42CCF6EE
:100AF000CC42A0FB02026FF0030000EA92000F223A
:100B00000B6802FA00F018430860704741617047B3
:100B100040F200424FF6FF71C0F20012C0E900122D
:100B200070470000B0B58B790A88032B0BD07BB9D6
:100B30004979282901F00F0E18D0182908BF026141
:100B4000110616D12EE04FF0000E110611D129E04A
:100B500003F0080C0B79C97903F00403634401F036
:100B6000030103EB010E110603D11BE042611106E4
:100B700018D000234FF00F0C002104E001310829A8
:100B800003F104030ED022FA01F4E407F6D004685E
:100B90000CFA03F5AC43046004680EFA03F52C4329
:100BA0000460EBE7B2F5807F38BFB0BD120A0023C6
:100BB0004FF00F0C002104E00131082903F1040378
:100BC0000ED022FA01F4E407F6D044680CFA03F5DB
:100BD000AC43446044680EFA03F52C434460EBE7F1
:100BE000B0BD0000B0B5C0F3072353FAA0F3C0F3C3
:100BF0000742C3F120034FF0FF3E2EFA03F40EFA32
:100C000002F340F2000E4FEA106CC4F2010E5CF8E1
:100C10000E50234025EA0303C0B29040002918BFBC
:100C200003434CF80E30B0BD40F60801C4F2010198
:100C300008680422000741F21040C4F2010054BFCA
:100C400002604260096849064FF0080154BF016024
:100C50004160704741F20800C4F201000168890652
:100C60005EBF0421C0F80814704741F21440C4F27A
:100C7000010004210160704740F60840C4F2010001
:100C800000680421C00741F21040C4F201000CBF0B
:100C9000016041607047000000F060FE00F01AFE45
:100CA00000F06EFD00F00CFE00F074FD0824C4F2AC
:100CB000020442F24C41C4F201012046002200230A
:100CC00000F08CFD20460121FFF746FE00F0DAFC23
:100CD00000F08CFE00F0F0FE00F05EFF00F02EFD54
:100CE00000F076FF00F07EFDFFF7FCFA00F00CFA52
:100CF000FCE7000041F2144841F2104642F634404D
:100D00004FF6F837C4F20108C4F20106C4F201003C
:100D10001921CFF6FF774FF001090225016000BFCE
:100D2000F0590007FCD46420FFF7FAFAF0590007E5
:100D3000F6D4C6F800903560F0590007FCD5C8F825
:100D40000090C8F8005000F00BFA044600F090F94B
:100D500020430CBFC6F800903560E1E741F610046F
:100D600040F60805C4F20104C4F201054FF400582E
:100D70004FF480474FF4004616E000BF4FF49670E2
:100D8000C4F80080FFF7CCFA4FF49670C4F80480E2
:100D90002760FFF7C5FA4FF4967067602660FFF78B
:100DA000BFFA6660FFF740FF28684007FAD4642066
:100DB000FFF7B6FA28684007F4D400BF2868400758
:100DC000DCD4FFF731FFF9E784B09FED330B41F23C
:100DD00010445BEC100B9FED320B40F6144540F6CF
:100DE0000808C4F20104C4F20105C4F201084FF07E
:100DF00001094FF0020A039051EC100BB7EE009A74
:100E0000CDE9011002E0C4F800A000BFD5F8F4035A
:100E10004007FBD46420FFF783FAD8F800004007AE
:100E2000F4D4C4F80090C4F800A000BFD8F80000C3
:100E30004007FBD54FF40050C4F80490C4F804A058
:100E4000286000F081F810EE100AB0EE408A01F040
:100E5000D1F8039A5B4606460F4601F019F90028BF
:100E6000D1D1DDE901323046394601F00AF90028D6
:100E7000C9D04FF40050286000F066F830EE480A00
:100E8000B4EE490AF1EE10FAACBFC4F80090C4F811
:100E900000A0BBE700BF00BF7B14AE47E17A843FF0
:100EA000333333333333D33FFFF7D4FEFCE7000053
:100EB00041F2104440F60805C4F20104C4F20105F1
:100EC00001260227286880060BD46420FFF728FA41
:100ED0002868800605D400BF28688006FCD5FFF787
:100EE00097FBD5F800080007ECD46420FFF718FA48
:100EF000D5F800080007E5D426602760D5F800087B
:100F00000007FBD566606760FFF788FBDAE7000043
:100F1000FFF7B2FEFCE7000070B514460D4606462A
:100F2000FFF798FA29462246FFF72AFA014630468B
:100F3000FFF798FA3046FFF77DFA70BD80B5FFF7EE
:100F4000A3FA80BD00000000B0B542F2004540F2B7
:100F50007204C4F20105C2F20004082005F14C013C
:100F6000C4F202002246032300F038FC2846012187
:100F7000FFF744FB0220FFF7FDFC00BF0220FFF754
:100F800005FD0028FAD0A08800F0AAFE9FED080B0E
:100F900053EC102B00F030FF9FED070B53EC102BA0
:100FA00000F02AFF00F022FE00EE100AB0BD00BFE4
:100FB0006666666666660A40000000000000303F14
:100FC000B0B541F2040441F20025C4F20204C0F2BB
:100FD0007A05FFF76DFC02280BD090BB206D8005D1
:100FE0002FD5E06A800144BF46F60045C0F2DC25FB
:100FF00027E0206821682268C1F38341C2F341726F
:1010000013010133002A1A4608BF02220F2908BF24
:101010001A46C00302EB010006D440F60011C0F2EC
:101020003D0100FB01F50CE02168890301D4454333
:1010300007E0216DC1F301310231B5FBF1F101FB94
:1010400000F540F20000C2F200000560216804A231
:10105000C1F30311515C026822FA01F10160B0BDD5
:101060000000000000000000010203040607080958
:10107000B0B541F21045C4F20105042028603220C9
:10108000FFF74EF940F26C04C2F20004082042F26D
:101090004C41C4F20200C4F201012246032300F0D5
:1010A0009DFB05F57F600121FFF7A8FA0220FFF7FD
:1010B00061FC00BF0220FFF769FC0028FAD02088FD
:1010C00000F00EFE9FED0C0B53EC102B00F094FE85
:1010D0009FED0B0B53EC102B00F08EFE00F086FD05
:1010E00000EE100AB7EE081A0020B4EE410AF1EE45
:1010F00010FAB8BF0120B0BD6666666666660A4033
:10110000000000000000303F80B541F20800C4F24A
:10111000010001680268006801F0010102F00202AA
:10112000114400F004000844072809D0DFE800F06B
:101130000409080C0F121500FFF7DCFD80BD00BF8D
:10114000FEE7FFF70BFE80BDFFF73EFE80BDFFF719
:10115000ABFE80BDFFF7ACFE80BDFFF7D9FE80BDC2
:10116000B0B542F63445C4F201054B2040F6080400
:1011700028600A20C4F20104FFF7D2F82068800733
:101180005CBF0120B0BD192028600A20FFF7C8F815
:101190002068C0F34000B0BD40F60042C4F2000237
:1011A000904203D0B0F1804F18BF7047026801F041
:1011B000010122F4806242EA81210160704700004F
:1011C000C1628262416941F00101416170470000E2
:1011D0008A79436C02F0010223F4805343EA02321D
:1011E00042640A78436C23F0FF031A4442644A794C
:1011F000436C02F0010223F4806343EA82224264DA
:101200000A79436C02F0010223F4006343EAC2222C
:1012100042644A78436C02F0010223F4005343EA2B
:1012200042324264CA78436C02F0010223F48043E4
:1012300043EA823242648978426C01F0030122F46D
:10124000407242EA0121416470470000062988BFCC
:101250007047DFE801F0040B060B080B0A0042633D
:10126000704782637047C263704702647047000032
:10127000026801F0030122F4407242EA0121016098
:1012800070470000026801F0070122F0700242EA94
:101290000111016070470000026861F30002026002
:1012A00070470000D0F808C061F3020CC0F808C015
:1012B000016A62F341010162016AC2F35C0262F3F6
:1012C000C30101628169012262F301018161016A46
:1012D00063F345110162016AC3F3580363F3C71155
:1012E0000162816962F309218161704710B591F84B
:1012F00000C0BCF1060F88BF10BDDFE80CF004D0C1
:1013000034D067D09A0086465EF8203F23F0010370
:10131000CEF8003091F801C0DEF800306CF34103E4
:10132000CEF8003091F801C0DEF80040CCF35C0349
:1013300063F3C304CEF800408B7850F8184F63F382
:1013400001040460C978036801F00F0123F0F00381
:1013500043EA0111016001680C2303EA820C21F0C9
:101360000C02012193E086465EF8203F02F0030262
:1013700023F01003CEF800304B78DEF800404FEA3F
:10138000822C63F34514CEF800404B78DEF8004021
:10139000C3F3580363F3C714CEF800408B7850F8BA
:1013A000184F03F0030324F4407444EA032303605A
:1013B000C978036801F00F0123F4704343EA013157
:1013C0000160016821F44062102160E086465EF809
:1013D000203F23F48073CEF800304B78DEF80040D5
:1013E00003F0010324F4007444EA4323CEF80030F0
:1013F0004B78DEF80040C3F3540363F3CB24CEF8FC
:1014000000408B7850F81C4F63F301040460C978E6
:10141000036801F00F0123F0F00343EA01110160BA
:1014200001680C2303EA820C21F00C024FF4807156
:101430002DE086465EF8203F02F0030223F480533D
:10144000CEF800304B78DEF8004003F0010324F4BE
:10145000005444EA4333CEF800308B7850F81C4FE8
:1014600003F0030324F4407444EA03230360C978BF
:10147000036801F00F0123F4704343EA0131016076
:1014800001684FEA822C21F440624FF4805142EA15
:101490000C020260DEF800000843CEF8000010BD28
:1014A000062988BF7047DFE801F0041B071B0A1BF1
:1014B000120050F8183F04E050F8183F09E050F8C7
:1014C0001C3F082101EAC20123F0080206E050F89F
:1014D0001C3F02F00101C90223F4006211430160C4
:1014E000704700002DE9F0415378947801F1080E1F
:1014F00001F1090C03FA0EFE04FA0CF54FF4007C1E
:1015000043680CFA01F4A34343604368ADB22B4334
:1015100043604FF4807345688B4025EA03034360C2
:1015200043681FFA8EF52B430629436026D8DFE86F
:1015300001F0042509250E2518000346157853F8F7
:1015400018EF08E00346157853F8184F0DE00346EE
:10155000157853F81CEF702404EA051C2EF0700E69
:1015600009E00346157853F81C4F05F007054FEACC
:10157000053E24F4E04C4EEA0C051D6003244B00AC
:1015800004EB410CD47892F804E05D1C04FA05F8F1
:101590000EFA0CF44FF0080C066A0CFA03F726EA70
:1015A0000707A6B23743012606FA05F5AF431FFA2F
:1015B00088F52F430762022505EB410155799279A1
:1015C0009D4002FA01F104229A4027EA020289B200
:1015D000114306FA03F29143AAB211430162BDE836
:1015E000F0810000426C01F0010122F4004242EA65
:1015F000C131416470470000026801F0010122F02E
:10160000800242EAC111016070470000426801F0A7
:10161000070122F0700242EA0111416070470000A8
:10162000026B22F0FF02114401637047826801F0EF
:10163000010122F0800242EAC1118160704700007E
:1016400043F20000C4F200004AF6AA21016070478C
:1016500043F20401C4F200010A6860F302020A6066
:101660007047000043F20001C4F20001002818BFD7
:1016700045F255500860704743F20801C4F200017A
:1016800008607047B0B584B002AD42F2004428460D
:10169000C4F20104FFF73CFA03208DF80E0001208C
:1016A0000290A4F5E0502946FFF73CFA0220FEF72D
:1016B000CDFF0020FEF732FF01AD2846FEF716FFF2
:1016C0000120C0F20030019020462946FEF7ECFED2
:1016D0002046002101220123FEF73EFF2046002183
:1016E00002220123FEF738FF2046002103220123B6
:1016F000FEF732FF204607210122FEF75FFF20465A
:101700000021FEF771FF20460121FEF715FF20465C
:101710000121FEF71BFF2046FEF7ECFE2046FEF7F8
:10172000EFFE0028FAD12046FEF7EEFE2046FEF737
:10173000F1FE0028FAD104B0B0BD000010B582B0AF
:101740006C462046FFF7E4F9102000904FF44170FA
:10175000ADF8050040F60000C4F201002146FFF795
:10176000E1F901200021FFF7DDF801200021FFF75A
:10177000BFF801200121FFF7A3F802B010BD00005F
:1017800080B540F20230C3F210000121FFF72AFABF
:1017900080BD0000B0B586B00824C4F20204204623
:1017A000FFF786F901AD2846FFF7DCF80020ADF819
:1017B0000C0040F20010C0F2011004900120ADF8BE
:1017C000140020462946FFF735F9A4F1080001214D
:1017D0000122FFF7E9F806B0B0BD00004360816068
:1017E000C26070472DE9F04F83B001AC2046FFF78F
:1017F0008FF940F60047C4F201072F2007F58068F3
:101800000190042540462146ADF80950FFF78AF9BA
:101810006E2001901820A7F58069ADF809004846B0
:101820002146FFF77FF941F2030001903846214637
:10183000ADF80950FFF776F9384642F20401FFF798
:1018400065F907F5406528464EF280114EF2801B7F
:10185000FFF75CF907F5006630460F21FFF756F9F0
:1018600040F2004A42F20400C0F2102A01903846C9
:101870002146CDF808A0FFF755F928462146CDE9C5
:1018800001BAFFF74FF90F20019030462146CDF8FD
:1018900008A0FFF747F9802001904FF441754846B2
:1018A0002146ADF80950FFF73DF910200190404660
:1018B0002146ADF80950FFF735F903B0BDE8F08FC8
:1018C00080B50320FFF73AFB372000210022FFF705
:1018D00023FB80BD10B54FF4A0100121FEF75CFF83
:1018E0000120C0F214000121FEF756FF4FF4C01092
:1018F0000121FEF751FF0224C0F218042046012105
:10190000FEF74AFF601C0121FEF746FFA01C0121E3
:10191000FEF742FFE01C0121FEF73EFF201D0121E2
:10192000FEF73AFFE01D0121FEF736FF04F1090042
:101930000121FEF731FF4FF4E0100121FEF72CFFEB
:101940000524C0F21C0420460121FEF725FF04F106
:1019500018000121FEF720FF10BD000010B5FEF7B2
:1019600067FF04200121FEF7B7FE0124C0F2240422
:101970002046FEF7EFFE0128FAD101200121FEF7F3
:10198000ABFE00BFFEF7F4FE0028FBD000200121D3
:10199000FEF7A2FE0120FEF7DDFE0128FAD10020AD
:1019A0003B210122FEF70CFF02200121FEF794FEED
:1019B0001920FEF7CFFE0128FAD10020FEF756FECF
:1019C0000420FEF76FFE0420FEF75EFE0120FEF706
:1019D00077FE0220FEF74EFFFEF76AFF0228FBD1DA
:1019E0000020FEF76DFEFFF7EBFA10BD70B586B074
:1019F00004AD2846FFF78CF84FF40070049040F2D5
:101A0000004042F60044C0F20820C4F201040590F0
:101A1000A4F5A0502946FFF785F840F20340C2F232
:101A2000004001210126FFF7DDF8204640F2E731B2
:101A300041F2BF22FFF7C4FB204600210025FFF73B
:101A400021FC20460021FFF713FC20460021FFF770
:101A5000E7FD20460021FFF7CFFD20460021FFF7DC
:101A6000E5FD20460021FFF7D1FD02AA2046002116
:101A70008DF80850ADF80D60CDF80950FFF732FD34
:101A8000204600210022FFF7E1FB20460021002232
:101A9000FFF706FD69462046CDF803500095FFF795
:101AA00097FB20460121FFF79DFD20460121FFF70E
:101AB000F3FB06B070BD000070B584B002AC2046E8
:101AC000FFF726F840F600054FF4004040F20046CC
:101AD000C4F201050290C0F2001628462146039682
:101AE000FFF720F80820CDE9020605F580602146C1
:101AF000FFF718F840F20120C2F204400121FFF77D
:101B000071F84FF080400121FFF746FB4FF0804015
:101B10006FF070410022FFF753FB4FF0804000212F
:101B2000FFF7B0FB4FF080400021FFF7A1FB4FF023
:101B300080400021FFF760FD4FF080400021FFF75B
:101B400075FD4FF080400021FFF760FD4FF08040B1
:101B5000032103220323FFF7A5FB40F20030C0F26C
:101B6000010001AC01904FF0804021460022FFF7B8
:101B7000BDFB40F20230C0F2010001904FF0804006
:101B800021460022FFF7B2FB4FF080400121FFF712
:101B900083FB04B070BD000010B541F20044C4F2F4
:101BA00000042046EF2140F2E732FFF709FB204610
:101BB0000021FFF767FB20460021FFF71DFD2046AF
:101BC0000021FFF723FD20460121FFF765FB10BD33
:101BD00080B50120FFF746FD0020FFF739FD40F6F4
:101BE000FF70FFF749FDFFF72BFD80BD21F000429C
:101BF00001F00043A2F16052B2F5801F28BFD2F17C
:101C00007F6C0BD95FEA001C43EAC20242EB5070C2
:101C100018BF704728BF20F001007047B2F5801F41
:101C2000BCBF184670474FEA410C1CF5001F02D29A
:101C3000084600F087BA70B500F088F90000008906
:101C4000FFF7F6BF4FF00040A0F580007047491045
:101C500058BFC1F140415B1058BFC3F140438B42B4
:101C6000EFF300807047000051EA030C17D41CF515
:101C7000801F58BFBCF5801F00F10680994218BF35
:101C8000704708BF9042704707D711F5801F58BFB3
:101C900013F5801F19D499427047894270471CF58B
:101CA000801F08D5BCF5801FF7D58B4218BF704741
:101CB00008BF824270474FF4001C1CEB410F38BF35
:101CC0001CEB430F01D28B42704770B500F03EF918
:101CD000922449004FF000514FF08053FFF7B7BFF7
:101CE000B0FA80F310FA03F10AD0C3F11D0303F533
:101CF00080634FEA03524FEA415002EBD121704713
:101D00004FF000007047000051EA030C17D41CF597
:101D1000801F58BFBCF5801F00F10680994218BF94
:101D2000704708BF9042704707D711F5801F58BF12
:101D300013F5801F19D499427047894270471CF5EA
:101D4000801F08D5BCF5801FF7D58B4218BF7047A0
:101D500008BF824270474FF4001C1CEB410F38BF94
:101D60001CEB430F01D28B42704770B500F0EEF8C8
:101D7000922449004FF080514FF00053FFF767BFA6
:101D800051EA030C17D41CF5801F58BFBCF5801F07
:101D900000F10680994218BF704708BF9042704713
:101DA00007D711F5801F58BF13F5801F19D499422A
:101DB0007047894270471CF5801F08D5BCF5801F0D
:101DC000F7D58B4218BF704708BF824270474FF467
:101DD000001C1CEB410F38BF1CEB430F01D28B42A0
:101DE000704770B500F0B2F8922449004FF00051EE
:101DF0004FF08053FFF72BBF70B5DFF848C11CEAE6
:101E0000111E1EBF1CEA13159EEA0C0F95EA0C0F5B
:101E100000F06F8081EA03044EEAD47EAE4421EAEA
:101E20004C1123EA4C1341F4801143F48013AEF1BA
:101E30007F7EA1FB024CA0FB0365361955EB0C0518
:101E4000A1FB034C4CF10003A0FB021C16EB0C069B
:101E5000654153F10003094218BF46F0010613F42F
:101E6000007F0BD14FEA03314FEA053041EA1551AB
:101E700040EA165034036FF003020AE04FEAC32130
:101E80004FEAC52041EA555140EA5650F4026FF03E
:101E9000020202EB2E4201EB025585EACE710AD016
:101EA0005FEA440C18BF24F0004450F1000041F1F7
:101EB000000120EAD47040F2FE7C624500D270BD81
:101EC000A84214BF4FF080444FF04044002E08BF9A
:101ED0000024BEF1806FA8BFA1F1C041BDE87040F1
:101EE00080F2828001F1C04101F000414FF000001A
:101EF00070470CEA13159EEA0C0F18BF95EA0C0FF9
:101F000006D081EA030E4FF000000EF0004170BDD4
:101F100000F01CF88900013E00F007B800F009B895
:101F20004FEA430C5FEA5C5C08D081EA030100F0F1
:101F30005BB84FEA410C5FEA5C5CF6D102494FF0B6
:101F4000000070470000FF070000F87F0EF1020E4E
:101F50002EF0030E5EF8046B364205D4012A43EBE3
:101F6000030515F5001F12D8012841EB010C1CF5E3
:101F7000001F0CD80ED14FEAD17C0CEB4C0C0CF1AD
:101F8000020C15F5001F08BF4CEBD37C04E04FF0AA
:101F9000080C01E04FEAD37C0CEB4C0526FA05F661
:101FA00006F00706B6F1040C06D20EEB860CBDE86F
:101FB00070404CF0010C6047DFE80CF0090B0202A6
:101FC0004FF00041A1F500214FF0000070BD19460F
:101FD0001046012851EB010418BFD4F5001484BF4A
:101FE000002001F0004170BD0808A0F500114FEA83
:101FF0003101704743004FEAD30C4FEA3C0C434099
:102000001FBF40070CF1605113F0FE4F70471CF0EA
:10201000006F03D10CF00041002070470CF000432A
:1020200043EA507040EACC0010B500F038F800BF29
:10203000000000924FEA0001FFF7D6BF4FF00041C9
:10204000A1F500214FF00000704710B5FFF70CFE1E
:102050000CBF0120002010BD10B5FFF705FE14BF16
:102060000120002010BD10B5FFF74EFE8CBF0120EF
:10207000002010BD10B5FFF747FE2CBF0120002047
:1020800010BD10B5FFF77CFE94BF0120002010BDED
:1020900010B5FFF775FE34BF0120002010BD0EF112
:1020A000020E2EF0030E5EF8044B244204D44FEAD5
:1020B0004102B2F17F4F11D84FEA4003B3F17F4F95
:1020C0000CD80ED14FEAD07C0CEB4C0C0CF1020C6E
:1020D000B2F17F4F08BF4CEBD17C04E04FF0080C0D
:1020E00001E04FEAD17C0CEB4C0324FA03F404F03A
:1020F0000704B4F1040C06D20EEB840CBDE81040CA
:102100004CF0010C6047DFE80CF0070802024FF0CA
:102110000040A0F5800010BD0846420018BFD2F173
:10212000807288BF00F0004010BDF1EE100A4FF63B
:10213000FF71C0F2C03120EA010040F04070E1EED2
:10214000100A7047FF2141EAD050C00570470000D7
:10215000702100080000002008000000C0010008F5
:10216000782100080800002078060000DC01000843
:0821700000127A0000000000DB
:040000050800018569
:00000001FF
