:020000040800F2
:1000000080060020510200089903000891030008AF
:10001000950300080D0300082104000800000000FB
:10002000000000000000000000000000A103000824
:100030008D030008000000009D030008690200080D
:100040006B0200086B0200086B0200086B020008DC
:100050006B0200086B0200086B0200086B020008CC
:100060006B0200086B0200086B0200086B020008BC
:100070006B0200086B0200086B0200086B020008AC
:100080006B0200086B0200086B0200086B0200089C
:100090006B0200086B0200086B0200086B0200088C
:1000A0006B0200086B0200086B0200086B0200087C
:1000B0006B0200086B0200086B0200086B0200086C
:1000C0006B0200086B0200086B0200086B0200085C
:1000D0006B0200086B0200086B0200086B0200084C
:1000E0006B0200086B0200086B0200086B0200083C
:1000F0006B0200086B0200086B0200086B0200082C
:100100006B0200086B0200086B0200086B0200081B
:100110006B0200086B0200086B0200080104000873
:100120006B0200086B0200086B0200086B020008FB
:100130006B0200086B0200086B0200086B020008EB
:1001400000000000000000000000000000000000AF
:100150006B0200086B0200086B0200086B020008CB
:100160006B0200086B0200086B0200086B020008BB
:100170006B0200086B0200086B0200086B020008AB
:100180006B02000800F002F800F052F814A696E89E
:10019000000CB244B344DA4501D100F049F8BAE8A2
:1001A0000F000FA696E83000A5EB040504EB060748
:1001B000AAEB0704A7F101074FEA15154FEA34141B
:1001C000A4F10104AC4201D300F032F813F0010FA6
:1001D00018BFFB1A43F0010300F001F8DBE71847F2
:1001E000B81E0000D81E0000103A24BF78C878C19D
:1001F000FAD8520724BF30C830C144BF04680C602D
:1002000070470000704700000023002400250026EE
:10021000103A28BF78C1FBD8520728BF30C148BF69
:100220000B6070471FB501F024FF1FBD10B510BD56
:1002300000F031F81146FFF7F5FF00F0A1FC00F0E7
:100240004FF803B4FFF7F2FF03BC00F057F80000CB
:100250000948804709480047FEE7FEE7FEE7FEE75A
:10026000FEE7FEE7FEE7FEE7FEE7FEE70448054996
:10027000054A064B70470000A503000885010008E9
:1002800080000020800600208002002080020020E4
:10029000704770477047754600F02CF8AE46050071
:1002A0006946534620F00700854618B020B5FFF791
:1002B000DDFFBDE820404FF000064FF000074FF093
:1002C00000084FF0000BAC46ACE8C009ACE8C00930
:1002D000ACE8C009ACE8C00921F007018D467047C1
:1002E00010B50446AFF300802046BDE81040FFF78C
:1002F000A8BF0000004870470800002001491820EE
:10030000ABBEFEE72600020070470000FEE70000DB
:100310004EF6FC50CEF20000016841F080710160A1
:1003200041F20000CEF2000000214160016841F07E
:100330000101016040F20000C2F20000006840F2DA
:100340006801C2F20001086070470000002808BF81
:10035000704740F26801C2F2000109684DF68362FD
:10036000C4F21B32A1FB021241F2040C920C4FF4B6
:100370007A73CEF2000C5A43DCF80030DCF800103F
:10038000C91A9142FAD30138F6D17047704700007C
:10039000FEE70000FEE70000704700007047000025
:1003A000704700004EF68850CEF20000026841F21D
:1003B000000142F47002C4F2020102600A6842F0D5
:1003C00001020A600A689207FCD54A6822F003021B
:1003D0004A6000BF4A6812F00C0FFBD10A684FF662
:1003E000FF73CFF6F2631A400A6000224A600A6384
:1003F0004FF41F028A604FF0006140F8801C704784
:1004000041F21040C4F20000016821F001010160D6
:1004100040F27800C2F200000168013101607047CB
:10042000FEE700000A78436802F0010223F48073BB
:1004300043EA022242604A78836862F341038360A0
:100440008A78836802F0010223F4006343EAC2223F
:100450008260C978C26A013901F00F0122F470028A
:1004600042EA0151C16270474FF0807101607047EC
:10047000816841F008018160704700008068C0F326
:10048000C0007047816841F004018160704700003E
:100490008068C0F38000704742F20441C4F2010159
:1004A0000A6800F00F0022F4702242EA004008605F
:1004B00070470000826801F0010122F4807242EA74
:1004C0000121816070470000826861F30002826050
:1004D00070470000B0B501EB410C4FF00C0E0A293B
:1004E00028BFACF11E0C38BF4FF0100E50F80E4074
:1004F000072505FA0CF5AC4303FA0CF32343342526
:100500006FF0040440F80E30062A88BF302588BFFB
:100510006FF0220402EB82030C2A84BF2C256FF0BB
:1005200040041A1943591F249440A343914019438E
:100530004151B0BD836808294FEA414105D343F0DA
:100540000073836001F4602102E023F00073836094
:10055000836802F0010223F46023194381608168FB
:1005600021F4801141EA025181607047426801F034
:10057000010122F4006242EAC1214160704700009B
:10058000826801F0010122F4800242EA8151816017
:100590007047000041F20401C4F202010A6860F3EE
:1005A0008F320A600A68800860F31C720A60704724
:1005B00041F20401C4F202010A6800F00F0022F0C7
:1005C000F00242EA001008607047000041F20401A6
:1005D000C4F202010A6800F0070022F4E06242EA75
:1005E000002008607047000041F20401C4F20201DB
:1005F0000A6800F0070022F4605242EAC020086056
:100600007047000041F25401C4F202010A68012857
:1006100022F0300208BF30320A607047042888BFD9
:100620007047DFE800F0032B15220C0041F20000B8
:10063000C4F20200026861F300020260704741F2F6
:100640000000C4F20200426A61F300024262704795
:1006500041F20000C4F20200026801F0010122F040
:10066000807242EA01610160704741F20000C4F209
:100670000200026A61F300020262704741F2000068
:10068000C4F20200026801F0010122F4803242EA61
:10069000014101607047000041F20002010CC4F208
:1006A0000202895800F01F0021FA00F000F001005A
:1006B0007047000041F200000021C4F2020000BFB8
:1006C0000268920304D4B1F5405F01F10101F7D350
:1006D0000068C0F34040704741F2000200F01F0381
:1006E0004FF0010CC4F2020201290CFA03F14FEAA7
:1006F0001040835814BF23EA010119438150704709
:1007000080B541F2040EC4F2020EDEF800C070B1F2
:100710004CF48033CEF80030DEF800C0012814BF5E
:100720004CF400302CF40030CEF8000009E02CF43A
:100730008030CEF80000DEF82C0040F00070CEF8DB
:100740002C00DEF8000061F39540CEF80000DEF8E2
:100750000000090961F35E70CEF80000DEF80000C9
:1007600020F0004040EAC270CEF8000080BD0000DA
:1007700041F20000C4F20200016841F00101016091
:1007800001688907FCD5416821F00301416000BF81
:10079000416811F00C0FFBD101684FF6FF72CFF6E4
:1007A000F262114001600021416001634FF41F01BA
:1007B0008160704741F20401C4F202010A6860F3EB
:1007C00001020A6000BF00BF00BF00BF00BF00BF42
:1007D00000BF00BF00BF00BF00BF00BF00BF00BF21
:1007E00000BF00BF00BF00BF00BF00BF70470000D8
:1007F00041F20400C4F202000068C0F381007047B7
:1008000047F200420228C4F2000207D0012818BFB4
:100810007047106861F3000010607047106801F0C5
:10082000010120F4803040EA014010607047000070
:10083000012807D0022818BF70476FF4003C4FF41E
:10084000003202E06FF0020C022247F20043C4F2D1
:1008500000031868002900EA0C0008BF1043186064
:100860007047000047F200420228C4F200020BD099
:10087000012818BF7047106801F0010120F0040042
:1008800040EA810010607047106801F0010120F417
:10089000802040EA8140106070470000026861F3E8
:1008A000000202607047000000210182C0E90011CF
:1008B000C0E90211704700000421B0F1805FC4F26A
:1008C000020192BF086020F07040C1F80004704738
:1008D0000021C4F20201B0F1805F88BF01F58061A0
:1008E0000968084018BF012070470000D0F8A43004
:1008F000DB0105D4D0F8A43043F08073C0F8A430F5
:100900000139062988BF7047DFE801F00426141D6D
:100910000C2F3800D0F8A01021F0FF011144C0F8CE
:10092000A0107047D0F8A41021F0FF011144C0F8C6
:10093000A4107047D0F8A01021F47F0141EA0241D1
:10094000C0F8A0107047D0F8A01021F07F4141EA14
:100950000261C0F8A0107047D0F8A01021F47F41C8
:1009600041EA0221C0F8A0107047D0F8A41021F489
:100970007F4141EA0221C0F8A4107047D0F8A410CA
:1009800021F47F0141EA0241C0F8A4107047000041
:1009900002684BF6EF731A4002600A8903681A4333
:1009A00002604A7C036802F0030223F4405343EAE6
:1009B00002320260CA7B036802F0030223F4406340
:1009C00043EA822202608A7B036802F0030223F476
:1009D000407343EA022202604A7B036802F001028C
:1009E00023F0800343EAC21202600A7B036862F3C9
:1009F000861303600A7C036862F3451303604A8927
:100A000042600A6882604968C1607047016821F0ED
:100A1000010101600021016041608160C16040F21C
:100A2000FF4100EA01020421B2F5816FC4F2020124
:100A300005D3D208902A88BF704701F5806100F085
:100A4000FC004CF6CD420838CCF6CC42A0FB0202AA
:100A50006FF0030000EA92000F220B6802FA00F028
:100A600018430860704700004161704740F200423F
:100A70004FF6FF71C0F20012C0E90012704700008B
:100A8000B0B58B790A88032B0BD07BB9497928291B
:100A900001F00F0E18D0182908BF0261110616D1F7
:100AA0002EE04FF0000E110611D129E003F0080CE2
:100AB0000B79C97903F00403634401F0030103EBEC
:100AC000010E110603D11BE04261110618D000236C
:100AD0004FF00F0C002104E00131082903F1040359
:100AE0000ED022FA01F4E407F6D004680CFA03F5FC
:100AF000AC43046004680EFA03F52C430460EBE792
:100B0000B2F5807F38BFB0BD120A00234FF00F0C42
:100B1000002104E00131082903F104030ED022FA78
:100B200001F4E407F6D044680CFA03F5AC434460E2
:100B300044680EFA03F52C434460EBE7B0BD0000B7
:100B4000B0B5C0F3074353FA90F2C2F120024FF060
:100B5000FF3E2EFA02F40EFA03F240F2000E4FEAC4
:100B6000106CC4F2010E5CF80E50224025EA02021D
:100B7000C0B29840002918BF02434CF80E20B0BD07
:100B800000F092FE00F04CFE00F0A0FD00F03CFEF4
:100B900000F0A4FD0824C4F2020442F24C41C4F265
:100BA000010120460022002300F0BCFD2046012167
:100BB000FFF774FE00F00CFD00F0C0FE00F024FF13
:100BC00000F08AFF00F060FD00F0A4FF00F0AEFD31
:100BD000FFF79EFB00F084FAFCE7000042F6344B7E
:100BE00041F2104541F208064FF60004C4F2010B31
:100BF000C4F20105C4F2010619204FF001090227D1
:100C00004FF04B0ACFF6FF74CBF800000BE000BFAB
:100C100000F01AFA0221B8F1000F08BF01210028E4
:100C200018BF3946296030680007FCD46420FFF7FC
:100C30008DFB30680007F6D4C5F800902F6000BF28
:100C400030680007FCD54FF001080A20C5F8048081
:100C50006F60CBF800A0FFF779FB30598007D7D53C
:100C60001920CBF800000A20FFF770FB3059C0F3C1
:100C70004008CDE741F6140841F6100540F6080695
:100C80004FF600494FF60444C4F20108C4F20105CE
:100C9000C4F20106CFF6FF794FF0040A0827CFF619
:100CA000FF7400BF30684007FCD46420FFF74EFBA0
:100CB00030684007F6D40CE03068000754BF45F8B0
:100CC00009A045F804A03068400654BF45F80970F3
:100CD0002F5130684007EFD54FF4005B4FF496700A
:100CE000C5F800B0FFF732FBC8F800B04FF4804BF6
:100CF0004FF49670C5F800B0FFF728FBC8F800B0B5
:100D00004FF4004B4FF49670C5F800B0FFF71EFB90
:100D1000C8F800B0C6E7000082B09FED310B41F289
:100D200010445BEC10AB9FED300B40F6144540F6E1
:100D30000808C4F20104C4F20105C4F20108012646
:100D400051EC100BB7EE009ACDE9001003E000BFA4
:100D5000C4F800900126D5F8F4034007FBD46420C2
:100D6000FFF7F4FAD8F800004007F4D40220266018
:100D7000206000BFD8F800004007FBD54FF0020903
:100D80004FF400506660C4F80490286000F0C4F886
:100D900010EE100AB0EE408A01F0D0F852465B46E1
:100DA00006460F4601F018F90028D1D1DDE90032DE
:100DB0003046394601F009F90028C9D04FF40050F7
:100DC000286000F0A9F830EE480AB4EE490A4FF066
:100DD0000109F1EE10FAB8BF4FF00209B8E700BF01
:100DE0007B14AE47E17A843F333333333333D33F1D
:100DF00048F23C6841F2104440F608052426C0F24F
:100E00000108C4F20104C4F20105C4F200064FF067
:100E100000094FF0010A022708F1C80B02E0022086
:100E2000206000BF286880060BD46420FFF78EFA8C
:100E30002868800605D400BF28688006FCD5C6F85F
:100E40000090D5F800080007ECD46420FFF77EFA84
:100E5000D5F800080007E5D4C4F800A0276000BF5B
:100E6000D5F800080007FBD5C4F804A06760306817
:100E70004045D4D930685845D1D201202060D1E70F
:100E8000B0B54EF60C5ECEF2000EDEF800304FF03C
:100E9000FF35C3F3022383F00704042C28BF042486
:100EA000033B05FA04F438BF0023A143994005FA37
:100EB00003F39A4300F00F03043B4EF2001C73440B
:100EC000CEF2000C11430C33B0F1FF3F4FEA011199
:100ED00000EB0C02C8BF02F540730028197048BF30
:100EE000B0BD00F01F01012202FA01F1C0F342106F
:100EF0004CF82010B0BD00004EF60C51CEF20001AF
:100F00000A684FF6FF031A4060F30A2242F080603D
:100F100040F0FD7008607047B0B542F2004540F205
:100F20007204C4F20105C2F20004082005F14C016C
:100F3000C4F202002246032300F0F4FB28460121FC
:100F4000FFF71EFB0220FFF7B7FC00BF0220FFF7F0
:100F5000BFFC0028FAD0A08800F066FE9FED080BC9
:100F600053EC102B00F0ECFE9FED070B53EC102B15
:100F700000F0E6FE00F0DEFD00EE100AB0BD00BF9E
:100F80006666666666660A40000000000000303F44
:100F9000B0B541F2040441F20025C4F20204C0F2EB
:100FA0007A05FFF725FC02280BD0A8BB206D800531
:100FB00032D5E06A800144BF46F60045C0F2DC2528
:100FC0002AE0D4F800C021682268890CC2F341727B
:100FD000130101F00F01581C0F29034618BF02230B
:100FE000002A18BF03465FEACC3003EB010006D4A9
:100FF00040F60011C0F23D0100FB01F50CE0216854
:10100000890301D4454307E0216DC1F30131023169
:10101000B5FBF1F101FB00F540F20000C2F2000067
:101020000560216804A2C1F30311515C026822FA31
:1010300001F10160B0BD00BF000000000000000031
:101040000102030406070809B0B541F21045C4F2D5
:101050000105042028603220FFF778F940F26C0483
:10106000C2F20004082042F24C41C4F20200C4F271
:1010700001012246032300F055FB05F57F600121A5
:10108000FFF77EFA0220FFF717FC00BF0220FFF7F0
:101090001FFC0028FAD0208800F0C6FD9FED0C0B45
:1010A00053EC102B00F04CFE9FED0B0B53EC102B70
:1010B00000F046FE00F03EFD00EE100AB7EE081A02
:1010C0000020B4EE410AF1EE10FAB8BF0120B0BD25
:1010D0006666666666660A40000000000000303FF3
:1010E00041F20800C4F2010001680268006801F0E2
:1010F000010102F00202114400F004000844052836
:1011000006D8DFE800F003080506050AFFF766BD0C
:10111000FEE7FFF701BEFFF7ADBDFFF769BE0000B8
:10112000C1628262416941F0010141617047000082
:101130008A79436C02F0010223F4805343EA0232BD
:1011400042640A78436C23F0FF031A4442644A79EC
:10115000436C02F0010223F4806343EA822242647A
:101160000A79436C02F0010223F4006343EAC222CD
:1011700042644A78436C02F0010223F4005343EACC
:1011800042324264CA78436C02F0010223F4804385
:1011900043EA823242648978426C01F0030122F40E
:1011A000407242EA0121416470470000426801F048
:1011B000010122F0800242EAC11141607047000043
:1011C000062988BF7047DFE801F0040B080B060B07
:1011D0000A0042637047C2637047826370470264CB
:1011E00070470000026801F0030122F4407242EAF5
:1011F0000121016070470000026801F0070122F040
:10120000700242EA0111016070470000026861F358
:10121000000202607047000080B591F800C0BCF188
:10122000060F88BF80BDDFE80CF004DC71DC38DC21
:10123000A80050F8203F02F0030223F001030360EE
:1012400091F801C003686CF34103036091F801C099
:10125000D0F800E04FEA5C0363F3C30EC0F800E08F
:1012600091F802C050F8083C6CF3010340F8083CC8
:10127000C97850F8083C01F00F0123F0F00343EA6D
:10128000011140F8081C50F8081C21F00C0141EA3B
:10129000820140F8081C0121A0E050F8203F02F034
:1012A000030223F4807303604B78D0F800C003F08E
:1012B000010E2CF4007343EA4E23036091F801C041
:1012C000D0F800E04FEA5C0363F3CB2EC0F800E0F7
:1012D00091F802C050F8043C6CF3010340F8043C60
:1012E000C97850F8043C01F00F0123F0F00343EA01
:1012F000011140F8041C50F8041C21F00C0141EAD3
:10130000820140F8041C4FF4807167E050F8203FE0
:1013100002F0030223F01003036091F801C0036898
:101320006CF34513036091F801C0D0F800E04FEA78
:101330005C0363F3C71EC0F800E08B7850F808CC5C
:1013400003F0030E2CF4407343EA0E2340F8083CEC
:10135000C97850F8083C01F00F0123F4704343EAC8
:10136000013140F8081C50F8081C21F4406141EAA2
:10137000822140F8081C102130E050F8203F02F094
:10138000030223F4805303604B78D0F800C003F0CD
:10139000010E2CF4005343EA4E3303608B7850F86F
:1013A00004CC03F0030E2CF4407343EA0E2340F800
:1013B000043CC97850F8043C01F00F0123F4704359
:1013C00043EA013140F8041C50F8041C21F4406148
:1013D00041EA822140F8041C4FF480510268114315
:1013E000016080BD062988BF7047DFE801F0042650
:1013F00015260D261E00816902F0010221F0080168
:1014000041EAC20181617047C16902F0010221F025
:10141000080141EAC2010FE0816902F0010221F4F2
:10142000006141EAC22181617047C16902F0010295
:1014300021F4006141EAC221C1617047F0B55378DF
:10144000947801F1080E01F1090C03FA0EFE04FA7A
:101450000CF54FF4007C43680CFA01F4A34343609D
:101460004368ADB22B4343604FF4807345688B40B3
:1014700025EA0303436043681FFA8EF52B430629D0
:10148000436024D8DFE801F0042310230A231A0064
:101490001378856963F30615856118E01378C569CB
:1014A00063F30615C56112E01378856903F007033D
:1014B00025F4E04545EA0333836108E01378C56904
:1014C00003F0070325F4E04545EA0333C3614B000D
:1014D0000324D57803F1010C04EB410E147905FACD
:1014E0000CF74FF0080C056A04FA0EF40CFA03F638
:1014F00025EA0606A5B22E43022505FA03F4A64303
:10150000BFB2374307625679927905EB410102FA7F
:1015100001F104229A4027EA020289B21143012212
:101520009E409A409143B2B211430162F0BD000067
:10153000426C01F0010122F4004242EAC1314164EF
:1015400070470000026801F0010122F0800242EAC7
:10155000C111016070470000426801F0070122F0EC
:10156000700242EA0111416070470000026B22F0F4
:10157000FF02114401637047826801F0010122F00B
:10158000800242EAC11181607047000043F200000E
:10159000C4F200004AF6AA210160704743F2040138
:1015A000C4F200010A6860F302020A60704700009A
:1015B00043F20001C4F20001002818BF45F2555063
:1015C0000860704743F20801C4F2000108607047E8
:1015D000B0B584B002AD42F200442846C4F2010422
:1015E000FFF744FA03208DF80E0001200290A4F5C5
:1015F000E0502946FFF744FA0220FEF7CBFF002017
:10160000FEF74AFF01AD2846FEF72EFF0120C0F28B
:101610000030019020462946FEF704FF20460021B5
:1016200001220123FEF756FF20460021022201235A
:10163000FEF750FF2046002103220123FEF74AFF58
:10164000204607210122FEF775FF20460021FEF704
:101650008DFF20460121FEF72DFF20460121FEF7D8
:1016600033FF2046FEF704FF2046FEF707FF002861
:10167000FAD12046FEF706FF2046FEF709FF0028B4
:10168000FAD104B0B0BD000010B582B06C4620465F
:10169000FFF7ECF9102000904FF44170ADF8050011
:1016A00040F60000C4F201002146FFF7E9F90120ED
:1016B0000021FFF7D7F801200021FFF7B9F801203A
:1016C0000121FFF79DF802B010BD000040F202308A
:1016D000C3F210000121FFF733BA0000B0B586B0A5
:1016E0000824C4F202042046FFF790F901AD284611
:1016F000FFF7DAF80020ADF80C0040F20010C0F25D
:10170000011004900120ADF8140020462946FFF78F
:101710003FF9A4F1080001210122FFF7E7F806B024
:10172000B0BD000043608160C26070472DE9F04F9A
:1017300083B001AC2046FFF799F940F60047C4F2A8
:1017400001072F2007F580680190042540462146B7
:10175000ADF80950FFF794F96E20A7F58069019064
:1017600048462146ADF80950FFF78AF941F20300D7
:10177000019038462146ADF80950FFF781F9384607
:1017800042F20401FFF770F907F5406528464EF272
:101790008011FFF769F907F5006630460F214FF019
:1017A0000F0AFFF761F940F2004B42F20400C0F269
:1017B000102B019038462146CDF808B0FFF760F9AC
:1017C0004EF28010019028462146CDF808B0FFF770
:1017D00057F930462146CDE901ABFFF751F980209A
:1017E00001904FF4417548462146ADF80950FFF786
:1017F00047F91020019040462146ADF80950FFF707
:101800003FF903B0BDE8F08F80B50320FFF774FB0C
:10181000372000210022BDE88040FFF731BB0000E7
:1018200010B54FF4A0100121FEF756FF0120C0F2C1
:1018300014000121FEF750FF4FF4C0100121FEF704
:101840004BFF0224C0F2180420460121FEF744FF9A
:10185000601C0121FEF740FFA01C0121FEF73CFFA8
:10186000E01C0121FEF738FF201D0121FEF734FFA7
:10187000E01D0121FEF730FF04F109000121FEF710
:101880002BFF4FF4E0100121FEF726FF0524C0F2E4
:101890001C0420460121FEF71FFF04F1180001215E
:1018A000BDE81040FEF718BF10B5FEF761FF042039
:1018B0000121FEF7B3FE0124C0F224042046FEF706
:1018C000EBFE0128FAD101200121FEF7A7FE00BF9F
:1018D000FEF7F0FE0028FBD000200121FEF79EFE5F
:1018E0000120FEF7D9FE0128FAD100203B21012278
:1018F000FEF706FF02200121FEF790FE1920FEF7F9
:10190000CBFE0128FAD10020FEF752FE0420FEF79C
:101910006BFE0420FEF75AFE0120FEF773FE022044
:10192000FEF748FFFEF764FF0228FBD10020FEF718
:1019300069FEBDE81040FFF72BBB000070B586B014
:1019400004AD2846FFF792F84FF40070049040F27F
:10195000004042F60044C0F20820C4F201040590A1
:10196000A4F5A0502946FFF78BF840F20340C2F2DD
:10197000004001210126FFF7E3F8204640F2E7315D
:1019800041F2BF22FFF7CCFB204600210025FFF7E4
:1019900033FC20460021FFF725FC20460021FFF7FD
:1019A000E5FD20460021FFF7CDFD20460021FFF791
:1019B000E3FD20460021FFF7CFFD0DF1090220468F
:1019C00000218DF80950ADF80E60CDF80A50FFF7F0
:1019D00035FD204600210022FFF7F2FB20460021C2
:1019E0000022FFF7FFFC69462046CDF80350009522
:1019F000FFF79EFB20460121FFF79AFD20460121BB
:101A0000FFF704FC06B070BD70B584B002AC204690
:101A1000FFF72CF840F600054FF4004040F2004676
:101A2000C4F201050290C0F2001628462146039632
:101A3000FFF726F80820CDE9020605F5806021466B
:101A4000FFF71EF840F20120C2F204400121FFF727
:101A500077F84FF080404FF6FF710022FFF760FBF0
:101A60004FF080400021FFF7C7FB4FF0804000217E
:101A7000FFF7B8FB4FF080400121FFF763FD4FF007
:101A800080400021FFF778FD4FF080400021FFF7F4
:101A900063FD4FF080400121FFF788FB40F20030EA
:101AA000C0F2010001AC01904FF0804021460022BD
:101AB000FFF7B2FB40F20230C0F2010001904FF09C
:101AC000804021460022FFF7A7FB4FF08040012114
:101AD000FFF79CFB04B070BD10B541F20044C4F2A6
:101AE00000042046EF2140F2E732FFF719FB2046C1
:101AF0000021FFF781FB20460021FFF723FD204650
:101B00000021FFF729FD20460121BDE81040FFF725
:101B10007DBB000080B50120FFF74AFD0020FFF7E4
:101B20003DFD40F6FF70FFF74DFDBDE88040FFF73B
:101B30002DBD000021F0004201F00043A2F16052EF
:101B4000B2F5801F28BFD2F17F6C0BD95FEA001C71
:101B500043EAC20242EB507018BF704728BF20F022
:101B600001007047B2F5801FBCBF184670474FEAAE
:101B7000410C1CF5001F02D2084600F087BA70B570
:101B800000F088F900000089FFF7F6BF4FF0004031
:101B9000A0F580007047491058BFC1F140415B106B
:101BA00058BFC3F140438B42EFF300807047000001
:101BB00051EA030C17D41CF5801F58BFBCF5801FD9
:101BC00000F10680994218BF704708BF90427047E5
:101BD00007D711F5801F58BF13F5801F19D49942FC
:101BE0007047894270471CF5801F08D5BCF5801FDF
:101BF000F7D58B4218BF704708BF824270474FF439
:101C0000001C1CEB410F38BF1CEB430F01D28B4271
:101C1000704770B500F03EF9922449004FF0005132
:101C20004FF08053FFF7B7BFB0FA80F310FA03F11B
:101C30000AD0C3F11D0303F580634FEA03524FEA54
:101C4000415002EBD12170474FF000007047000077
:101C500051EA030C17D41CF5801F58BFBCF5801F38
:101C600000F10680994218BF704708BF9042704744
:101C700007D711F5801F58BF13F5801F19D499425B
:101C80007047894270471CF5801F08D5BCF5801F3E
:101C9000F7D58B4218BF704708BF824270474FF498
:101CA000001C1CEB410F38BF1CEB430F01D28B42D1
:101CB000704770B500F0EEF8922449004FF0805163
:101CC0004FF00053FFF767BF51EA030C17D41CF520
:101CD000801F58BFBCF5801F00F10680994218BFD5
:101CE000704708BF9042704707D711F5801F58BF53
:101CF00013F5801F19D499427047894270471CF52B
:101D0000801F08D5BCF5801FF7D58B4218BF7047E0
:101D100008BF824270474FF4001C1CEB410F38BFD4
:101D20001CEB430F01D28B42704770B500F0B2F844
:101D3000922449004FF000514FF08053FFF72BBF22
:101D400070B5DFF848C11CEA111E1EBF1CEA13154E
:101D50009EEA0C0F95EA0C0F00F06F8081EA0304F5
:101D60004EEAD47EAE4421EA4C1123EA4C1341F4EE
:101D7000801143F48013AEF17F7EA1FB024CA0FBE7
:101D80000365361955EB0C05A1FB034C4CF1000320
:101D9000A0FB021C16EB0C06654153F1000309423F
:101DA00018BF46F0010613F4007F0BD14FEA033150
:101DB0004FEA053041EA155140EA165034036FF0FE
:101DC00003020AE04FEAC3214FEAC52041EA555118
:101DD00040EA5650F4026FF0020202EB2E4201EB91
:101DE000025585EACE710AD05FEA440C18BF24F090
:101DF000004450F1000041F1000120EAD47040F2AB
:101E0000FE7C624500D270BDA84214BF4FF08044F2
:101E10004FF04044002E08BF0024BEF1806FA8BFE1
:101E2000A1F1C041BDE8704080F2828001F1C04163
:101E300001F000414FF0000070470CEA13159EEAD4
:101E40000C0F18BF95EA0C0F06D081EA030E4FF075
:101E500000000EF0004170BD00F01CF88900013E4A
:101E600000F007B800F009B84FEA430C5FEA5C5C89
:101E700008D081EA030100F05BB84FEA410C5FEA49
:101E80005C5CF6D102494FF0000070470000FF078C
:101E90000000F87F0EF1020E2EF0030E5EF8046BC8
:101EA000364205D4012A43EB030515F5001F12D86D
:101EB000012841EB010C1CF5001F0CD80ED14FEA94
:101EC000D17C0CEB4C0C0CF1020C15F5001F08BF7B
:101ED0004CEBD37C04E04FF0080C01E04FEAD37CDC
:101EE0000CEB4C0526FA05F606F00706B6F1040CD5
:101EF00006D20EEB860CBDE870404CF0010C60473A
:101F0000DFE80CF0090B02024FF00041A1F50021BF
:101F10004FF0000070BD19461046012851EB010436
:101F200018BFD4F5001484BF002001F0004170BD3B
:101F30000808A0F500114FEA3101704743004FEA4D
:101F4000D30C4FEA3C0C43401FBF40070CF16051DB
:101F500013F0FE4F70471CF0006F03D10CF00041EE
:101F6000002070470CF0004343EA507040EACC0078
:101F700010B500F038F800BF000000924FEA0001F1
:101F8000FFF7D6BF4FF00041A1F500214FF0000050
:101F9000704710B5FFF70CFE0CBF0120002010BDEC
:101FA00010B5FFF705FE14BF0120002010BD10B5CD
:101FB000FFF74EFE8CBF0120002010BD10B5FFF7CB
:101FC00047FE2CBF0120002010BD10B5FFF77CFE9E
:101FD00094BF0120002010BD10B5FFF775FE34BF7F
:101FE0000120002010BD0EF1020E2EF0030E5EF84F
:101FF000044B244204D44FEA4102B2F17F4F11D87E
:102000004FEA4003B3F17F4F0CD80ED14FEAD07C9A
:102010000CEB4C0C0CF1020CB2F17F4F08BF4CEBF7
:10202000D17C04E04FF0080C01E04FEAD17C0CEBCE
:102030004C0324FA03F404F00704B4F1040C06D2B0
:102040000EEB840CBDE810404CF0010C6047DFE85B
:102050000CF0070802024FF00040A0F5800010BD10
:102060000846420018BFD2F1807288BF00F00040DD
:1020700010BDF1EE100A4FF6FF71C0F2C03120EA38
:10208000010040F04070E1EE100A7047FF2141EA84
:10209000D050C00570470000B820000800000020A4
:1020A00008000000E8010008C02000080800002027
:1020B000780600000802000800127A000000000004
:040000050800018569
:00000001FF
